:020000040800F2
:1000000008200020250600083506000839060008EB
:100010003D060008410600084506000800000000F3
:100020000000000000000000000000004906000879
:100030004D060008000000005106000855060008A3
:10004000590600085D0600086106000865060008FC
:10005000690600086D0600087106000875060008AC
:10006000790600087D06000881060008850600085C
:10007000890600088D06000891060008950600080C
:10008000990600089D060008A1060008000000006F
:10009000000000000000000000000000A5060008AD
:1000A000A9060008AD060008B1060008B50600085C
:1000B000B9060008BD060008C1060008C50600080C
:1000C000C9060008CD060008D1060008D5060008BC
:1000D000D9060008DD060008E1060008000000005F
:1000E000E5060008D1010008E9060008000000004C
:1000F000000000000000000000000000ED06000805
:1001000000000000F1060008F5060008F9060008E6
:1001100000000000000000000000000000000000DF
:10012000FD06000801070008050700080907000888
:100130000D070008000000000000000000000000A3
:10014000000000000000000000000000110700088F
:1001500015070008190700081D07000821070008F7
:100160002507000829070008000000000000000023
:10017000000000000000000000000000000000007F
:10018000000000002D070008000000000000000033
:100190003107000835070008012210F01F018A40CE
:1001A000B54940B2400941F820207047020052B2E0
:1001B000002A08D50901B14A40B210F00F001044DE
:1001C00000F8041C03E00901AD4A40B21154704725
:1001D000AC480168C90510D50121AB4A1170AB4983
:1001E0000A6892F400520A60016831F4807101607B
:1001F000A748016851F400310160704780B500F0F4
:1002000011F800F0DDF800F088F800F0FAF800F0DE
:1002100023F89D4908780028FBD00020087000F0E2
:10022000FDF8F6E79B485FF410210160016889033F
:10023000FCD599480168890889000160016851F07E
:100240000101016001684907FCD5016841F41041D2
:1002500051F080010160704710B59048016851F07D
:10026000805101608E48016851F4807101608A48B4
:10027000016851F4002101608A48016851F403418A
:1002800001608948CA210160532101607D4C2068CA
:1002900050F08000206020684006FCD5834841F67D
:1002A0003F710160016851F4F801016080488149A3
:1002B0000860206830F0800020607F48016851F4B9
:1002C000003101607D48016851F4003101607C48D3
:1002D000016851F4003101602920FFF75DFF002122
:1002E0002920FFF763FF62B6206830F48070206039
:1002F0007448016831F4885101602168C907FCD550
:1003000071490A6872F07F320A6000216F4A1160F9
:10031000016851F48851016010BD6D48016851F0C9
:1003200002010160016831F0020101606948016861
:1003300051F0020101606848016851F02A410160F2
:100340006648016831F4704101606548016851F008
:100350007F4101606348016851F088510160624942
:100360000A68624802430A606148016851F48041AA
:100370000160016831F4804101604848016851F42E
:10038000804101605B49088850F0080008800A88B5
:100390004FF6FC7002400A800A884FF2FF7002405C
:1003A0000A800A884FF67F7002400A80524802880D
:1003B00052F004020280088850F044000880704720
:1003C0004348016851F008010160016831F00801FB
:1003D00001604048016851F0080101605FF08060F1
:1003E000464908604648016831F04061016045486F
:1003F000016831F0406101604FF40050234908600A
:10040000704700204048FF21018040490988C90702
:10041000FBD50088C0B2AA28F4D1704710B4254A91
:1004200013681B0C13F030031068000A10F0700002
:10043000116811F070011468240C14F00F042343A8
:100440001468240A14F00F042043126812F00F02FB
:1004500011432D4ADBB213802C4B1C88A407FBD51B
:10046000C0B2108018888007FCD5C9B211801888E6
:100470008007FCD510BC704700E100E018ED00E0FB
:1004800000E400E00C28004000000020140C0240B2
:10049000143C014000380240083802404038024015
:1004A00000700040703802402428004010280040AE
:1004B0004853210000280040083C0140003C014016
:1004C000043C0140082800401C280040442800400B
:1004D0001038024030380240000402400404024058
:1004E000080402400C040240240402400000555558
:1004F000203802400038004004380040000C024020
:10050000080C02400C0C02400C3800400838004037
:1005100030B4002512E050F8042BD30744BF4A44FE
:10052000521E091F042942F8045BFAD213468C07B5
:1005300044BF15809B1CC90748BF1D7050F8041BA1
:100540000029E8D130BC704710B50749794418310B
:10055000064C7C44163404E00A68081D11448847A0
:100560000146A142F8D110BD2C0000003800000067
:100570004EF68851CEF20001086840F47000086021
:10058000BFF34F8FBFF36F8F4FF00170E1EE100A92
:10059000704700007DFFFFFF040000000000002006
:1005A0000000000000F00DF8002801D0FFF7CCFF9C
:1005B000AFF300800020AFF30080FFF71FFE00F0D4
:1005C00002F80120704700F001B8000007463846E5
:1005D00000F002F8FBE7000080B5AFF30080024AAC
:1005E00011001820ABBEFBE726000200044801689A
:1005F00051F4700101605FF00060024908607047CB
:1006000088ED00E008ED00E00548014603B46846C7
:1006100080F30988AFF30080FFF7AAFFFFF7C2FF5E
:10062000A5EDF5FE0148804701480047ED050008AB
:1006300009060008FFF7FEBFFFF7FEBFFFF7FEBF8A
:10064000FFF7FEBFFFF7FEBFFFF7FEBFFFF7FEBFDE
:10065000FFF7FEBFFFF7FEBFFFF7FEBFFFF7FEBFCE
:10066000FFF7FEBFFFF7FEBFFFF7FEBFFFF7FEBFBE
:10067000FFF7FEBFFFF7FEBFFFF7FEBFFFF7FEBFAE
:10068000FFF7FEBFFFF7FEBFFFF7FEBFFFF7FEBF9E
:10069000FFF7FEBFFFF7FEBFFFF7FEBFFFF7FEBF8E
:1006A000FFF7FEBFFFF7FEBFFFF7FEBFFFF7FEBF7E
:1006B000FFF7FEBFFFF7FEBFFFF7FEBFFFF7FEBF6E
:1006C000FFF7FEBFFFF7FEBFFFF7FEBFFFF7FEBF5E
:1006D000FFF7FEBFFFF7FEBFFFF7FEBFFFF7FEBF4E
:1006E000FFF7FEBFFFF7FEBFFFF7FEBFFFF7FEBF3E
:1006F000FFF7FEBFFFF7FEBFFFF7FEBFFFF7FEBF2E
:10070000FFF7FEBFFFF7FEBFFFF7FEBFFFF7FEBF1D
:10071000FFF7FEBFFFF7FEBFFFF7FEBFFFF7FEBF0D
:10072000FFF7FEBFFFF7FEBFFFF7FEBFFFF7FEBFFD
:08073000FFF7FEBFFFF7FEBF5B
:0400000508000609E0
:00000001FF
