S00D0000435F5350492E7372656389
S113000045C0000060C000005EC000005CC000008D
S11300105AC0000058C0000056C0000054C0000080
S113002052C0000050C000004EC000004CC0000090
S11300304AC0000048C0000046C0000044C00000A0
S113004042C0000026C100003EC000003CC00000C9
S11300503AC0000038C0000036C0000034C00000C0
S113006032C0000030C000002EC000002CC00000D0
S11300702AC0000028C0000026C0000024C00000E0
S113008022C0000020C000001EC0000011241FBEBA
S1130090CFEFD0E1DEBFCDBF11E0A0E0B1E0E8E5F5
S11300A0F3E000E00BBF02C007900D92AE30B10741
S11300B0D9F721E0AEE0B1E001C01D92A131B20751
S11300C0E1F72DD147C19CCF9AB393609ABB9BB300
S11300D093609BBB9FEF94BB85BB8FEF97E4019725
S11300E0F1F700C000008BB38E7F8BBB8FEF97E4DA
S11300F00197F1F700C0000008959AB393609ABB8A
S11301009BB391609BBB9BB39D7F9BBB9FEF94BBB9
S113011085BB8FEF97E40197F1F700C000008BB324
S11301208C7F8BBB8FEF97E40197F1F700C0000041
S113013008951F93CF93DF93CDB7DEB728970FB6FB
S1130140F894DEBF0FBECDBF2FEF8FEF9CE221509E
S113015080409040E1F700C0000084E3CEDF8FEFE1
S113016097E40197F1F700C0000086E0C6DF8FEF47
S113017097E40197F1F700C0000080E0BEDF8FEF45
S113018097E40197F1F700C0000080E8B6DF8FEF35
S113019097E40197F1F700C0000088E0E6E0F1E0A1
S11301A0DE01119601900D928A95E1F710E00FC0DF
S11301B0E1E0F0E0EC0FFD1FE10FF11D808184DF31
S11301C08FEF97E40197F1F700C000001F5F18302C
S11301D078F38CE092DF8FEF97E40197F1F700C09A
S11301E0000028960FB6F894DEBF0FBECDBFDF9196
S11301F0CF911F910895CF93DF93EC0180E87DDFC9
S11302008FEF97E40197F1F700C0000088815CDF6D
S11302108FEF97E40197F1F700C00000898154DF64
S11302208FEF97E40197F1F700C000008AE34CDFF9
S11302308FEF97E40197F1F700C000008A8144DF53
S11302408FEF97E40197F1F700C000008B813CDF4A
S11302508FEF97E40197F1F700C000008AE334DFE1
S11302608FEF97E40197F1F700C000008C812CDF39
S11302708FEF97E40197F1F700C000008D8124DF30
S11302808FEF97E40197F1F700C00000DF91CF9161
S113029008951F920F920FB60F9211240BB60F926E
S11302A08F939F93EF93FF938FB190910E019923B6
S11302B009F1E0911001F0E0982F92959F70905D04
S11302C0E050FF4F9083E0911001F0E08F70805D6B
S11302D0EF5FFE4F8083809110018E5F8093100149
S11302E080911001863081F41092100181E0809396
S11302F00F010AC08F3F21F481E080930E0104C0F6
S113030010920E018AEA8FB9FF91EF919F918F911C
S11303100F900BBE0F900FBE0F901F90189509DF22
S11303200ED0789480E091E066DF80910F018823FD
S1130330E1F380E091E05FDF10920F01F6CF87B325
S1130340886087BB80EC8DB98DB18F7D8DB98AEAC9
S10B03508FB90895F894FFCF62
S111035830303030303020203A20203A20203F
S9030000FC
